:100000000C9463000C948B000C948B000C94A8034C
:100010000C94A8030C94A8030C948B000C948B00F4
:100020000C948B000C948B000C948B000C948B0024
:100030000C948B000C948B000C948B000C948B0014
:100040000C94E3010C948B000C948B000C948B00AB
:100050000C948B000C948B000C948B000C948B00F4
:100060000C948B000C948B0000000008000201002F
:100070000003040700000000000000000102040863
:100080001020408001020408102001020408102002
:10009000040404040404040402020202020203032E
:1000A00003030303000000002300260029000000D2
:1000B0000000250028002B0000000000240027007D
:1000C0002A00C400D50011241FBECFEFD8E0DEBF48
:1000D000CDBF11E0A0E0B1E0E2E6F1E102C00590A1
:1000E0000D92AA31B107D9F721E0AAE1B1E001C030
:1000F0001D92A437B207E1F710E0C4ECD0E004C0D1
:100100002297FE010E945F06C23CD107C9F70E94F8
:10011000D4010C94A4080C940000089569E071E0E7
:100120008AE191E00E945D0180E291E00E949B02E1
:10013000892B69F466E071E08AE191E00E94B401E4
:100140008823A9F082E291E00E94B00210C080E210
:1001500091E00E949B02892B69F380E291E00E946A
:100160009002682F8AE191E00E94A101F0CF68E03F
:1001700071E08AE191E00E94B401882321F082E2DB
:1001800091E00C94AB0208956DE082E291E00E9450
:10019000A50244E063E080E291E00E94680269E029
:1001A00071E08AE191E00C9447018AE191E00C94BE
:1001B000D900FC01808191810C94FB06CF93DF93E1
:1001C000EC0188819981009711F00E94FB06198249
:1001D00018821D821C821B821A82DF91CF910895A2
:1001E0000F931F93CF93DF93EC018B016F5F7F4FD2
:1001F000888199810E948A07009731F099838883CA
:100200001B830A8381E001C080E0DF91CF911F91C1
:100210000F910895CF93DF93EC0188819981892B09
:1002200029F08A819B818617970760F4CE010E948E
:10023000F000882341F08C819D81892B19F4E8819D
:10024000F981108281E0DF91CF910895EF92FF92C2
:100250000F931F93CF93DF93EC017B018A01BA01C7
:100260000E940A01811104C0CE010E94DE0007C075
:100270001D830C83B701888199810E946608CE0195
:10028000DF91CF911F910F91FF90EF900895FC01A6
:1002900011821082138212821582148261157105F7
:1002A00059F0FB0101900020E9F7AF0141505109DD
:1002B000461B570B0C9426010895CF93DF93EC0156
:1002C0006115710561F0FB0101900020E9F7AF01B4
:1002D00041505109461B570B0E94260102C00E9443
:1002E000DE00CE01DF91CF910895EF92FF920F9340
:1002F0001F93CF93DF93EC017B010C811D8161156E
:10030000710511F480E016C04115510591F0040FFC
:10031000151FB8010E940A018823A1F328813981A1
:100320008C819D81B701820F931F0E9466081D83F7
:100330000C8381E0DF91CF911F910F91FF90EF909F
:100340000895CF93DF9300D0CDB7DEB769831A82CB
:1003500041E050E0BE016F5F7F4F0E9475010F903A
:100360000F90DF91CF910895FC0124813581232BDB
:1003700031F421E061157105A1F0FB0108C0FC0119
:10038000808191816115710531F421E0FC0180814A
:10039000882339F005C00E945D0821E0892B09F00F
:1003A00020E0822F089508950E942D020E94D3011B
:1003B0000E948D00C0E0D0E00E948E002097E1F303
:1003C0000E940000F9CF1F920F920FB60F921124D6
:1003D0002F933F938F939F93AF93BF93809124016B
:1003E00090912501A0912601B09127013091230120
:1003F00023E0230F2D3720F40196A11DB11D05C068
:1004000026E8230F0296A11DB11D2093230180939E
:10041000240190932501A0932601B0932701809198
:10042000280190912901A0912A01B0912B010196F8
:10043000A11DB11D8093280190932901A0932A0149
:10044000B0932B01BF91AF919F918F913F912F91CD
:100450000F900FBE0F901F901895789484B582600E
:1004600084BD84B5816084BD85B5826085BD85B558
:10047000816085BDEEE6F0E0808181608083E1E807
:10048000F0E010828081826080838081816080833F
:10049000E0E8F0E0808181608083E1EBF0E0808142
:1004A00084608083E0EBF0E0808181608083EAE714
:1004B000F0E080818460808380818260808380819D
:1004C000816080838081806880831092C10008955C
:1004D000EF92FF920F931F93CF93DF9300D0CDB78E
:1004E000DEB78C018FE190E04A8369830E945A0550
:1004F0007C0120E04A8169810E947404F801F18244
:10050000E08240E855E260E070E0C7010F900F9094
:10051000DF91CF911F910F91FF90EF900C94A40465
:10052000DC018D919C91DC01ED91FC910680F781BD
:10053000E02D09950895DC018D919C91DC01ED91F0
:10054000FC910480F581E02D0994FC01862F6083E5
:1005500061E00C94850561E0FC0180810C94BE058E
:1005600060E0FC0180810C94BE0520916E01309109
:100570006F0128173907B9F490912C0180912D0152
:10058000981789F0E0912C01F0E0E25DFE4F808148
:1005900020912C0130E02F5F3F4F2F7333272093A2
:1005A0002C0190E008958FEF9FEF08951F93CF9354
:1005B000DF93DC015C968D919C915D97009749F4E7
:1005C00081E090E013969C938E93129780E090E0E8
:1005D0003BC05196ED91FC91529750962C915097BB
:1005E000322F30951FB75E964C915E9741FB77276F
:1005F00070F941FD6095F8944081772311F0422B0A
:1006000001C043234083EC012197F1F748E050817A
:1006100060FF02C0522B01C053235083EC0121978D
:10062000F1F76695415099F78081772311F0832384
:1006300001C0822B80831FBF5C968D919C915D973A
:100640000197F1F781E090E0DF91CF911F9108953C
:1006500020916E0130916F012817390781F4909134
:100660002C0180912D01981751F0E0912C01F0E0C0
:10067000E25DFE4F8081992787FD909508958FEF69
:100680009FEF089520916E0130916F01281739076F
:1006900071F480912D0120912C0190E0805C9F4F9E
:1006A000821B910960E470E00E94F405089580E0E7
:1006B00090E0089520916E0130916F01281739075D
:1006C00039F48FB7F89410922D0110922C018FBF3E
:1006D0000895E0916E01F0916F01E817F90769F450
:1006E000A389B4899C918589809589238C931092E4
:1006F0006F0110926E0181E0089580E00895CF931C
:10070000DF93EC018A8D9B8D892BF1F080916E0136
:1007100090916F018C179D07B9F0009711F00E941E
:1007200069038E8D8E7F8E8F10922D0110922C0179
:10073000D0936F01C0936E01EB89FC8980819D8904
:10074000892B808381E001C080E0DF91CF91089503
:100750001F920F920FB60F9211242F933F934F9336
:100760005F936F937F938F939F93AF93BF93EF9319
:10077000FF93E0916E01F0916F01309709F451C041
:10078000868DA685B785958581FF04C08C918923C8
:1007900029F447C08C91892309F043C0A389B48907
:1007A0009C918589809589238C9386899789019767
:1007B000F1F7208D318DA685B785758558E040E02D
:1007C000C9010197F1F7842F90E095958795482FFF
:1007D0006C91672309F04068515091F7868D81FD37
:1007E000409580912D0190E001968F73992720917B
:1007F0002C01281749F0A0912D01B0E0A25DBE4F59
:100800004C9380932D0103C0868D8160868F828DED
:10081000938D0197F1F7A389B4898C919589892BE0
:100820008C93FF91EF91BF91AF919F918F917F91A9
:100830006F915F914F913F912F910F900FBE0F904D
:100840001F9018951F93CF93DF93EC01162F6E8D99
:100850006695617081E06827812F0E94BE0561E086
:10086000812F0E948505812F90E0FC01E458FF4F05
:10087000E491E88BFC01E057FF4FE491F0E0EE0FCC
:10088000FF1FE255FF4F859194919A8B898BDF91E1
:10089000CF911F9108951F93CF93DF93EC01162FF3
:1008A00060E0812F0E9485058E8D81FD04C061E08E
:1008B000812F0E94BE051C87812F90E0FC01E45827
:1008C000FF4FE491ED87FC01E057FF4FE491F0E02A
:1008D000EE0FFF1FEC55FF4F859194919F878E87F8
:1008E000DF91CF911F910895FF920F931F93CF93A4
:1008F000DF93EC01F62E522F1B821A8208EE13E0D2
:1009000020E030E00C831D832E833F838EE091E056
:10091000998388831F8A1E8A198E188E1B8E1A8EC1
:100920001D8E1C8E8E8D8E7F50FB81F98E8F642FD5
:10093000CE010E9422046F2DCE01DF91CF911F9135
:100940000F91FF900C944B04CF93DF93EC019A012D
:10095000AB011B8E1A8E198E188E1F8A1E8A60E0BC
:1009600079E08DE390E00E942A06C9012430310528
:1009700020F0B9016350710902C061E070E07D8F21
:100980006C8FEC85E63108F068C0B9017695679503
:100990006431710518F06351710902C061E070E0C3
:1009A0007F8B6E8B069718F0C901059702C081E016
:1009B00090E0998F888FC901880F991F820F931F2C
:1009C00096958795969587958D30910510F00C97A3
:1009D00002C081E090E09B8F8A8F20916800E83010
:1009E00050F091E0EE3008F490E081E001C0880F13
:1009F0009A95EAF701C084E0822B809368002C85E9
:100A0000283038F02E3040F0263148F48CE690E063
:100A100008C08DE690E005C08BE690E002C080E063
:100A200090E09C8B8B8B283030F481E001C0880FE4
:100A30002A95EAF70DC0822F90E02E3010F4089727
:100A400001C00E9791E001C0990F8A95EAF7892FAE
:100A50008D8B8C8D9D8D0197F1F7CE01DF91CF911C
:100A60000C947F03CF92DF92EF92FF920F931F932C
:100A7000CF93DF936C017A01EB01E60EF71E00E0E5
:100A800010E0CE15DF0561F06991D601ED91FC9182
:100A90000190F081E02DC6010995080F191FF1CFD3
:100AA000C801DF91CF911F910F91FF90EF90DF90E0
:100AB000CF9008950C946306833081F028F4813040
:100AC00099F08230A1F008958730A9F08830B9F00C
:100AD0008430D1F4809180008F7D03C080918000AC
:100AE0008F7780938000089584B58F7702C084B596
:100AF0008F7D84BD08958091B0008F7703C0809171
:100B0000B0008F7D8093B0000895CF93DF9390E085
:100B1000FC01E458FF4F2491FC01E057FF4F849102
:100B2000882349F190E0880F991FFC01E854FF4F9A
:100B3000A591B49182559F4FFC01C591D4919FB767
:100B4000611108C0F8948C91209582238C93888140
:100B500082230AC0623051F4F8948C91322F309580
:100B600083238C938881822B888304C0F8948C9192
:100B7000822B8C939FBFDF91CF9108950F931F938A
:100B8000CF93DF931F92CDB7DEB7282F30E0F90166
:100B9000E859FF4F8491F901E458FF4F1491F9018E
:100BA000E057FF4F04910023C9F0882321F06983A7
:100BB0000E945C056981E02FF0E0EE0FFF1FE25517
:100BC000FF4FA591B4919FB7F8948C91611103C028
:100BD0001095812301C0812B8C939FBF0F90DF91D3
:100BE000CF911F910F91089597FB072E16F4009453
:100BF00007D077FD09D00E94490607FC05D03EF4D6
:100C0000909581959F4F0895709561957F4F0895B8
:100C1000A1E21A2EAA1BBB1BFD010DC0AA1FBB1F00
:100C2000EE1FFF1FA217B307E407F50720F0A21B72
:100C3000B30BE40BF50B661F771F881F991F1A94DF
:100C400069F760957095809590959B01AC01BD0109
:100C5000CF010895052E97FB1EF400940E944106D3
:100C600057FD07D00E94080607FC03D04EF40C94F1
:100C7000410650954095309521953F4F4F4F5F4F1E
:100C8000089590958095709561957F4F8F4F9F4FF8
:100C90000895AA1BBB1B51E107C0AA1FBB1FA617C3
:100CA000B70710F0A61BB70B881F991F5A95A9F715
:100CB00080959095BC01CD010895EE0FFF1F059022
:100CC000F491E02D0994CF93DF938230910510F4D5
:100CD00082E090E0E0917201F091730120E030E059
:100CE000A0E0B0E0309739F14081518148175907B1
:100CF000B8F04817590771F482819381109729F051
:100D000013969C938E9312972CC0909373018093AB
:100D1000720127C02115310531F04217530718F031
:100D2000A901DB0101C0EF019A01BD01DF010280D1
:100D3000F381E02DD7CF21153105F9F0281B390BB0
:100D40002430310580F48A819B816115710521F081
:100D5000FB019383828304C090937301809372019B
:100D6000FE01329644C0FE01E20FF31F819391937E
:100D700022503109398328833AC020917001309183
:100D80007101232B41F42091020130910301309332
:100D90007101209370012091000130910101211512
:100DA000310541F42DB73EB7409104015091050142
:100DB000241B350BE0917001F0917101E217F307EC
:100DC000A0F42E1B3F0B2817390778F0AC014E5FBB
:100DD0005F4F2417350748F04E0F5F1F5093710186
:100DE000409370018193919302C0E0E0F0E0CF0165
:100DF000DF91CF910895CF93DF93009709F487C0D7
:100E0000FC01329713821282C0917201D09173015A
:100E1000209781F420813181280F391F8091700142
:100E2000909171018217930779F5F0937101E09326
:100E300070016DC0DE0120E030E0AE17BF0750F456
:100E400012964D915C9113979D014115510509F141
:100E5000DA01F3CFB383A28340815181840F951FC0
:100E60008A179B0771F48D919C911197840F951FA0
:100E700002969183808312968D919C911397938310
:100E800082832115310529F4F0937301E0937201F7
:100E90003EC0D9011396FC93EE9312974D915D914C
:100EA000A40FB51FEA17FB0779F480819181840FA5
:100EB000951F0296D90111969C938E9382819381FE
:100EC00013969C938E931297E0E0F0E08A819B81C9
:100ED000009719F0FE01EC01F9CFCE0102962881AE
:100EE0003981820F931F2091700130917101281771
:100EF000390769F4309729F4109273011092720146
:100F000002C013821282D0937101C0937001DF91ED
:100F1000CF910895A0E0B0E0E0E9F7E00C9471080B
:100F2000EC01CB01209719F40E946306B8C0FE01C2
:100F3000E60FF71F9E0122503109E217F30708F46C
:100F4000ACC0D9010D911C91119706171707B8F085
:100F50000530110508F49FC0A801445051094617F7
:100F6000570708F498C002501109061B170B01938C
:100F700011936D937C93CF010E94FB068CC05B01A3
:100F8000A01AB10A4E01800E911EA0917201B0917B
:100F90007301612C712C60E070E0109709F449C076
:100FA000A815B905C9F5ED90FC901197670142E0CD
:100FB000C40ED11CCA14DB0478F147018A189B08BF
:100FC000640142E0C40ED11C1296BC901297139695
:100FD000AC91B5E0CB16D10440F0B282A3839182EC
:100FE0008082D9018D939C9309C00E5F1F4F0E0D17
:100FF0001F1DF90111830083EB2DFA2F6115710577
:1010000031F0DB011396FC93EE93129744C0F093FA
:101010007301E09372013FC06D917C911197661648
:10102000770608F43B01BD0112960D90BC91A02DEE
:10103000B4CF609170017091710168157905E9F480
:1010400068167906D0F440910001509101014115D4
:10105000510541F44DB75EB76091040170910501EF
:10106000461B570BE417F507C0F4F0937101E093AA
:101070007001F901918380830EC00E9463067C0198
:10108000009759F0A801BE010E945408CE010E94A9
:10109000FB06C70104C0CE0102C080E090E0CDB7DE
:1010A000DEB7EEE00C948D08FB01DC0102C001907C
:1010B0000D9241505040D8F70895FB01DC018D910D
:1010C000019080190110D9F3990B0895FB01DC01FF
:1010D00001900D920020E1F708952F923F924F92D8
:1010E0005F926F927F928F929F92AF92BF92CF92B8
:1010F000DF92EF92FF920F931F93CF93DF93CDB7C1
:10110000DEB7CA1BDB0B0FB6F894DEBF0FBECDBF38
:1011100009942A88398848885F846E847D848C8409
:101120009B84AA84B984C884DF80EE80FD800C8112
:101130001B81AA81B981CE0FD11D0FB6F894DEBFF5
:101140000FBECDBFED01089510E0C4ECD0E004C0A7
:10115000FE010E945F062296C63CD107C9F7F894AB
:02116000FFCFBF
:101162000000740180006300620000000000D602EB
:0A11720032054203B50228035A03B8
:00000001FF
