:100000000C9463000C948B000C948B000C942304D0
:100010000C9423040C9423040C948B000C948B00FC
:100020000C948B000C948B000C948B000C948B0024
:100030000C948B000C948B000C948B000C948B0014
:100040000C9429020C948B000C948B000C948B0064
:100050000C948B000C948B000C948B000C948B00F4
:100060000C948B000C948B0000000008000201002F
:100070000003040700000000000000000102040863
:100080001020408001020408102001020408102002
:10009000040404040404040402020202020203032E
:1000A00003030303000000002300260029000000D2
:1000B0000000250028002B0000000000240027007D
:1000C0002A00FC001B0111241FBECFEFD8E0DEBFC9
:1000D000CDBF11E0A0E0B1E0E8E5F2E102C005909B
:1000E0000D92A032B107D9F721E0A0E2B1E001C042
:1000F0001D92A038B207E1F710E0C4ECD0E004C0D4
:100100002297FE010E94DA06C23CD107C9F70E947D
:100110001A020C941F090C940000089569E071E024
:1001200086E291E00E94A3018CE291E00E94E1024C
:10013000892B89F466E071E086E291E00E94FA0181
:100140008823C9F083E291E00E94090380E291E0F4
:100150000E94090310C08CE291E00E94E102892B09
:1001600049F38CE291E00E94D602682F86E291E08A
:100170000E94E701F0CF68E071E086E291E00E9422
:10018000FA01882341F083E291E00E94230380E298
:1001900091E00E9423036AE071E086E291E00E9410
:1001A000FA01882341F083E291E00E94090380E292
:1001B00091E00E9416036CE071E086E291E00E94FB
:1001C000FA01882341F083E291E00E94160380E265
:1001D00091E00E9409036EE071E086E291E00E94E6
:1001E000FA01882341F083E291E00E94160380E245
:1001F00091E00C94160308956DE08EE291E00E9468
:10020000EB0244E063E08CE291E00E94AE0269E020
:1002100071E086E291E00E948D0129E048E067E00C
:1002200083E291E00E94F1022BE04AE06CE080E280
:1002300091E00C94F10286E291E00C941F01FC0124
:10024000808191810C947607CF93DF93EC018881B4
:100250009981009711F00E947607198218821D82F9
:100260001C821B821A82DF91CF9108950F931F93F6
:10027000CF93DF93EC018B016F5F7F4F8881998172
:100280000E940508009731F0998388831B830A83B5
:1002900081E001C080E0DF91CF911F910F9108951F
:1002A000CF93DF93EC0188819981892B29F08A8192
:1002B0009B818617970760F4CE010E943601882340
:1002C00041F08C819D81892B19F4E881F98110829C
:1002D00081E0DF91CF910895EF92FF920F931F93EA
:1002E000CF93DF93EC017B018A01BA010E94500198
:1002F000811104C0CE010E94240107C01D830C831C
:10030000B701888199810E94E108CE01DF91CF91E8
:100310001F910F91FF90EF900895FC0111821082C0
:1003200013821282158214826115710559F0FB0146
:1003300001900020E9F7AF0141505109461B570BCE
:100340000C946C010895CF93DF93EC016115710556
:1003500061F0FB0101900020E9F7AF014150510924
:10036000461B570B0E946C0102C00E942401CE0163
:10037000DF91CF910895EF92FF920F931F93CF9348
:10038000DF93EC017B010C811D816115710511F476
:1003900080E016C04115510591F0040F151FB801FA
:1003A0000E9450018823A1F3288139818C819D818D
:1003B000B701820F931F0E94E1081D830C8381E027
:1003C000DF91CF911F910F91FF90EF900895CF9300
:1003D000DF9300D0CDB7DEB769831A8241E050E0E9
:1003E000BE016F5F7F4F0E94BB010F900F90DF91A6
:1003F000CF910895FC0124813581232B31F421E034
:1004000061157105A1F0FB0108C0FC01808191819B
:100410006115710531F421E0FC018081882339F0F8
:1004200005C00E94D80821E0892B09F020E0822F26
:10043000089508950E9473020E9419020E948D007F
:10044000C0E0D0E00E948E002097E1F30E940000FF
:10045000F9CF1F920F920FB60F9211242F933F9353
:100460008F939F93AF93BF9380913001909131010F
:10047000A0913201B091330130912F0123E0230F7D
:100480002D3720F40196A11DB11D05C026E8230FCC
:100490000296A11DB11D20932F01809330019093EE
:1004A0003101A0933201B0933301809134019091D6
:1004B0003501A0913601B09137010196A11DB11D02
:1004C0008093340190933501A0933601B0933701A6
:1004D000BF91AF919F918F913F912F910F900FBE40
:1004E0000F901F901895789484B5826084BD84B570
:1004F000816084BD85B5826085BD85B5816085BD1F
:10050000EEE6F0E0808181608083E1E8F0E0108237
:10051000808182608083808181608083E0E8F0E078
:10052000808181608083E1EBF0E080818460808362
:10053000E0EBF0E0808181608083EAE7F0E0808199
:1005400084608083808182608083808181608083F9
:100550008081806880831092C1000895EF92FF929D
:100560000F931F93CF93DF9300D0CDB7DEB78C01ED
:100570008FE190E04A8369830E94D5057C0120E0E9
:100580004A8169810E94EF04F801F182E08240E82B
:1005900055E260E070E0C7010F900F90DF91CF91BE
:1005A0001F910F91FF90EF900C941F05DC018D912E
:1005B0009C91DC01ED91FC910680F781E02D09957D
:1005C0000895DC018D919C91DC01ED91FC910480FA
:1005D000F581E02D0994FC01862F608361E00C9485
:1005E0000006CF93DF93EC01862F688349832A832B
:1005F00061E00E94000661E089810E94000661E0DE
:100600008A810E94000661E08881DF91CF910C947D
:100610003906CF93DF93EC0161E089810E943906AE
:1006200060E08A81DF91CF910C943906CF93DF93FC
:10063000EC0160E089810E94390660E08A81DF91E7
:10064000CF910C943906CF93DF93EC0160E0898160
:100650000E94390661E08A81DF91CF910C943906BE
:1006600020917A0130917B0128173907B9F49091D4
:10067000380180913901981789F0E0913801F0E054
:10068000E65CFE4F80812091380130E02F5F3F4FC4
:100690002F7333272093380190E008958FEF9FEF59
:1006A00008951F93CF93DF93DC015C968D919C910D
:1006B0005D97009749F481E090E013969C938E93A8
:1006C000129780E090E03BC05196ED91FC915297DB
:1006D00050962C915097322F30951FB75E964C91C3
:1006E0005E9741FB772770F941FD6095F894408152
:1006F000772311F0422B01C043234083EC01219763
:10070000F1F748E0508160FF02C0522B01C0532333
:100710005083EC012197F1F76695415099F780815C
:10072000772311F0832301C0822B80831FBF5C9647
:100730008D919C915D970197F1F781E090E0DF91B9
:10074000CF911F91089520917A0130917B01281754
:10075000390781F49091380180913901981751F04F
:10076000E0913801F0E0E65CFE4F8081992787FD3B
:10077000909508958FEF9FEF089520917A01309121
:100780007B012817390771F48091390120913801D4
:1007900090E0805C9F4F821B910960E470E00E94B2
:1007A0006F06089580E090E0089520917A013091DD
:1007B0007B012817390739F48FB7F8941092390163
:1007C000109238018FBF0895E0917A01F0917B017A
:1007D000E817F90769F4A389B4899C918589809504
:1007E00089238C9310927B0110927A0181E0089505
:1007F00080E00895CF93DF93EC018A8D9B8D892B48
:10080000F1F080917A0190917B018C179D07B9F0EE
:10081000009711F00E94E4038E8D8E7F8E8F1092D0
:10082000390110923801D0937B01C0937A01EB8992
:10083000FC8980819D89892B808381E001C080E0D3
:10084000DF91CF9108951F920F920FB60F9211244E
:100850002F933F934F935F936F937F938F939F93C8
:10086000AF93BF93EF93FF93E0917A01F0917B01F7
:10087000309709F451C0868DA685B785958581FF8F
:1008800004C08C91892329F447C08C91892309F0F5
:1008900043C0A389B4899C918589809589238C93D1
:1008A000868997890197F1F7208D318DA685B785C7
:1008B000758558E040E0C9010197F1F7842F90E079
:1008C00095958795482F6C91672309F040685150A2
:1008D00091F7868D81FD40958091390190E00196D8
:1008E0008F73992720913801281749F0A091390179
:1008F000B0E0A65CBE4F4C938093390103C0868D57
:100900008160868F828D938D0197F1F7A389B489D9
:100910008C919589892B8C93FF91EF91BF91AF9129
:100920009F918F917F916F915F914F913F912F9107
:100930000F900FBE0F901F9018951F93CF93DF93CA
:10094000EC01162F6E8D6695617081E06827812F0E
:100950000E94390661E0812F0E940006812F90E0FD
:10096000FC01E458FF4FE491E88BFC01E057FF4F96
:10097000E491F0E0EE0FFF1FE255FF4F8591949157
:100980009A8B898BDF91CF911F9108951F93CF93FD
:10099000DF93EC01162F60E0812F0E9400068E8D00
:1009A00081FD04C061E0812F0E9439061C87812FE0
:1009B00090E0FC01E458FF4FE491ED87FC01E05723
:1009C000FF4FE491F0E0EE0FFF1FEC55FF4F8591D4
:1009D00094919F878E87DF91CF911F910895FF9209
:1009E0000F931F93CF93DF93EC01F62E522F1B82B0
:1009F0001A8208EE13E020E030E00C831D832E8382
:100A00003F8384E191E0998388831F8A1E8A198E2F
:100A1000188E1B8E1A8E1D8E1C8E8E8D8E7F50FB17
:100A200081F98E8F642FCE010E949D046F2DCE011F
:100A3000DF91CF911F910F91FF900C94C604CF933B
:100A4000DF93EC019A01AB011B8E1A8E198E188E62
:100A50001F8A1E8A60E079E08DE390E00E94A5067F
:100A6000C9012430310520F0B9016350710902C079
:100A700061E070E07D8F6C8FEC85E63108F068C036
:100A8000B901769567956431710518F06351710964
:100A900002C061E070E07F8B6E8B069718F0C90191
:100AA000059702C081E090E0998F888FC901880F77
:100AB000991F820F931F96958795969587958D30F0
:100AC000910510F00C9702C081E090E09B8F8A8F17
:100AD00020916800E83050F091E0EE3008F490E0AA
:100AE00081E001C0880F9A95EAF701C084E0822B6B
:100AF000809368002C85283038F02E3040F0263165
:100B000048F48CE690E008C08DE690E005C08BE6E6
:100B100090E002C080E090E09C8B8B8B283030F41A
:100B200081E001C0880F2A95EAF70DC0822F90E07E
:100B30002E3010F4089701C00E9791E001C0990F74
:100B40008A95EAF7892F8D8B8C8D9D8D0197F1F712
:100B5000CE01DF91CF910C94FA03CF92DF92EF9206
:100B6000FF920F931F93CF93DF936C017A01EB01F8
:100B7000E60EF71E00E010E0CE15DF0561F069918A
:100B8000D601ED91FC910190F081E02DC60109950F
:100B9000080F191FF1CFC801DF91CF911F910F915D
:100BA000FF90EF90DF90CF9008950C94DE06833095
:100BB00081F028F4813099F08230A1F008958730D7
:100BC000A9F08830B9F08430D1F4809180008F7D15
:100BD00003C0809180008F7780938000089584B552
:100BE0008F7702C084B58F7D84BD08958091B00059
:100BF0008F7703C08091B0008F7D8093B0000895FF
:100C0000CF93DF9390E0FC01E458FF4F2491FC0167
:100C1000E057FF4F8491882349F190E0880F991F96
:100C2000FC01E854FF4FA591B49182559F4FFC0100
:100C3000C591D4919FB7611108C0F8948C9120950B
:100C400082238C93888182230AC0623051F4F89405
:100C50008C91322F309583238C938881822B8883CB
:100C600004C0F8948C91822B8C939FBFDF91CF911D
:100C700008950F931F93CF93DF931F92CDB7DEB7E5
:100C8000282F30E0F901E859FF4F8491F901E45829
:100C9000FF4F1491F901E057FF4F04910023C9F071
:100CA000882321F069830E94D7056981E02FF0E055
:100CB000EE0FFF1FE255FF4FA591B4919FB7F89437
:100CC0008C91611103C01095812301C0812B8C93FD
:100CD0009FBF0F90DF91CF911F910F91089597FBC8
:100CE000072E16F4009407D077FD09D00E94C406A1
:100CF00007FC05D03EF4909581959F4F089570951F
:100D000061957F4F0895A1E21A2EAA1BBB1BFD011E
:100D10000DC0AA1FBB1FEE1FFF1FA217B307E407DA
:100D2000F50720F0A21BB30BE40BF50B661F771F32
:100D3000881F991F1A9469F7609570958095909512
:100D40009B01AC01BD01CF010895052E97FB1EF458
:100D500000940E94BC0657FD07D00E94830607FC42
:100D600003D04EF40C94BC065095409530952195D7
:100D70003F4F4F4F5F4F08959095809570956195C7
:100D80007F4F8F4F9F4F0895AA1BBB1B51E107C098
:100D9000AA1FBB1FA617B70710F0A61BB70B881F0B
:100DA000991F5A95A9F780959095BC01CD0108959A
:100DB000EE0FFF1F0590F491E02D0994CF93DF9380
:100DC0008230910510F482E090E0E0917E01F09194
:100DD0007F0120E030E0A0E0B0E0309739F14081C1
:100DE000518148175907B8F04817590771F48281A3
:100DF0009381109729F013969C938E9312972CC091
:100E000090937F0180937E0127C02115310531F039
:100E10004217530718F0A901DB0101C0EF019A0145
:100E2000BD01DF010280F381E02DD7CF211531050F
:100E3000F9F0281B390B2430310580F48A819B811D
:100E40006115710521F0FB019383828304C09093A7
:100E50007F0180937E01FE01329644C0FE01E20FC5
:100E6000F31F8193919322503109398328833AC02B
:100E700020917C0130917D01232B41F420910201CE
:100E80003091030130937D0120937C01209100017A
:100E9000309101012115310541F42DB73EB7409144
:100EA000040150910501241B350BE0917C01F09168
:100EB0007D01E217F307A0F42E1B3F0B281739071B
:100EC00078F0AC014E5F5F4F2417350748F04E0FA6
:100ED0005F1F50937D0140937C018193919302C0E9
:100EE000E0E0F0E0CF01DF91CF910895CF93DF9361
:100EF000009709F487C0FC01329713821282C091D7
:100F00007E01D0917F01209781F420813181280FCB
:100F1000391F80917C0190917D018217930779F5AB
:100F2000F0937D01E0937C016DC0DE0120E030E0B4
:100F3000AE17BF0750F412964D915C9113979D0127
:100F40004115510509F1DA01F3CFB383A283408142
:100F50005181840F951F8A179B0771F48D919C9185
:100F60001197840F951F02969183808312968D911D
:100F70009C911397938382832115310529F4F09373
:100F80007F01E0937E013EC0D9011396FC93EE935E
:100F900012974D915D91A40FB51FEA17FB0779F4E5
:100FA00080819181840F951F0296D90111969C939F
:100FB0008E938281938113969C938E931297E0E097
:100FC000F0E08A819B81009719F0FE01EC01F9CFD6
:100FD000CE01029628813981820F931F20917C01D6
:100FE00030917D012817390769F4309729F4109260
:100FF0007F0110927E0102C013821282D0937D0184
:10100000C0937C01DF91CF910895A0E0B0E0EBE0C8
:10101000F8E00C94EC08EC01CB01209719F40E9445
:10102000DE06B8C0FE01E60FF71F9E01225031090F
:10103000E217F30708F4ACC0D9010D911C91119788
:1010400006171707B8F00530110508F49FC0A8016E
:10105000445051094617570708F498C00250110927
:10106000061B170B019311936D937C93CF010E9484
:1010700076078CC05B01A01AB10A4E01800E911E4A
:10108000A0917E01B0917F01612C712C60E070E035
:10109000109709F449C0A815B905C9F5ED90FC9061
:1010A0001197670142E0C40ED11CCA14DB0478F129
:1010B00047018A189B08640142E0C40ED11C1296B5
:1010C000BC9012971396AC91B5E0CB16D10440F0CA
:1010D000B282A38391828082D9018D939C9309C0AF
:1010E0000E5F1F4F0E0D1F1DF90111830083EB2DA5
:1010F000FA2F6115710531F0DB011396FC93EE9325
:10110000129744C0F0937F01E0937E013FC06D9140
:101110007C9111976616770608F43B01BD01129683
:101120000D90BC91A02DB4CF60917C0170917D0198
:1011300068157905E9F468167906D0F44091000144
:10114000509101014115510541F44DB75EB76091D1
:10115000040170910501461B570BE417F507C0F415
:10116000F0937D01E0937C01F901918380830EC0AF
:101170000E94DE067C01009759F0A801BE010E9482
:10118000CF08CE010E947607C70104C0CE0102C07D
:1011900080E090E0CDB7DEB7EEE00C940809FB01EB
:1011A000DC0102C001900D9241505040D8F70895E3
:1011B000FB01DC018D91019080190110D9F3990B8D
:1011C0000895FB01DC0101900D920020E1F70895E4
:1011D0002F923F924F925F926F927F928F929F9247
:1011E000AF92BF92CF92DF92EF92FF920F931F9335
:1011F000CF93DF93CDB7DEB7CA1BDB0B0FB6F894E6
:10120000DEBF0FBECDBF09942A88398848885F8425
:101210006E847D848C849B84AA84B984C884DF8096
:10122000EE80FD800C811B81AA81B981CE0FD11D7A
:101230000FB6F894DEBF0FBECDBFED01089510E0EC
:10124000C4ECD0E004C0FE010E94DA062296C63C3F
:08125000D107C9F7F894FFCFA4
:101258000000800180006300620065006400700087
:10126800000000005103AD05BD033003A303D503FF
:00000001FF
